:020000040000FA
:0400080010EF10F0F5
:0800180000EF20F0FFFFFFFFE5
:10002000FFFFFFFFFFFFFFFFFFFFFFFFFFFFFFFFE0
:10003000FFFFFFFFFFFFFFFFFFFFFFFFFFFFFFFFD0
:10004000FFFFFFFFFFFFFFFFFFFFFFFFFFFFFFFFC0
:10005000FFFFFFFFFFFFFFFFFFFFFFFFFFFFFFFFB0
:10006000FFFFFFFFFFFFFFFFFFFFFFFFFFFFFFFFA0
:0A007000FFFFFFFFFFFFFFFFFFFF90
:10200000003E2400A22400342500DA2500762600B4
:102010001227004E2700743C00000000005400000E
:10202000D8CFE5FFE0CFE5FFE56EF3CFE5FFF4CFD6
:10203000E5FFE9CFE5FFEACFE5FFFACFE5FFFBCF0C
:10204000E5FFD9CFE5FFE1CFD9FFF6CFE5FFF7CF29
:10205000E5FFF8CFE5FFF5CFE5FF07EC1EF0E4CF95
:10206000F5FFE4CFF8FFE4CFF7FFE4CFF6FFE4CFCE
:10207000D9FFE4CFFBFFE4CFFAFFE4CFEAFFE4CFE0
:10208000E9FFE4CFF4FFE4CFF3FFE450E4CFE0FF57
:10209000E4CFD8FF100000C0E5FF03C0E5FF0D0E40
:1020A000E56EDDEC1AF00201A86FF3CFA9F2E6525B
:1020B0000E0EE56EDDEC1AF00201AA6FF3CFABF263
:1020C000E6520F0EE56EDDEC1AF00201AC6FF3CFB5
:1020D000ADF2E6520201A13F01D0A22B0A0EE56E3D
:1020E000020EE56E400EE56E0201A251E56EA151B1
:1020F000E56E77EC1BF0050EE126800EE56E020E14
:10210000E56E400EE56EC0EC1BF00201B06FF3CF40
:10211000B1F2030EE126B051010A02E1B15101E032
:1021200014D0540E0201416F0201B051036E032A14
:102130000350E56E800EE56E020EE56E400EE56E14
:102140009DEC1CF0040EE12650D00201B051020AB1
:1021500002E1B15101E014D0540E0201426F0201BC
:10216000B051036E032A0350E56E800EE56E020E39
:10217000E56E400EE56E9DEC1CF0040EE12635D0B8
:102180000201B051030A02E1B15101E014D0540E32
:102190000201436F0201B051036E032A0350E56E42
:1021A000800EE56E020EE56E400EE56E9DEC1CF0B5
:1021B000040EE1261AD00201B051040A02E1B15125
:1021C00001E013D0540E0201446F0201B051036EBE
:1021D000032A0350E56E800EE56E020EE56E400E9A
:1021E000E56E9DEC1CF0040EE126E56A210EE56E1D
:1021F000FBEC1CF0E652E652100EE56EDDEC1AF038
:102200000201A86FF3CFA9F2E652110EE56EDDECE4
:102210001AF00201AA6FF3CFABF2E652120EE56E8E
:10222000DDEC1AF00201AC6FF3CFADF2E652020121
:10223000A13F01D0A22B0A0EE56E020EE56E400E04
:10224000E56E0201A251E56EA151E56E77EC1BF03F
:10225000050EE126800EE56E020EE56E400EE56E7F
:10226000C0EC1BF00201B06FF3CFB1F2030EE12618
:10227000B051010A02E1B15101E014D0480E02014F
:10228000416F0201B051036E032A0350E56E800EC8
:10229000E56E020EE56E400EE56E9DEC1CF0040E40
:1022A000E12650D00201B051020A02E1B15101E031
:1022B00014D0480E0201426F0201B051036E032A8E
:1022C0000350E56E800EE56E020EE56E400EE56E83
:1022D0009DEC1CF0040EE12635D00201B051030A3A
:1022E00002E1B15101E014D0480E0201436F020136
:1022F000B051036E032A0350E56E800EE56E020EA8
:10230000E56E400EE56E9DEC1CF0040EE1261AD041
:102310000201B051040A02E1B15101E013D0480EAC
:102320000201446F0201B051036E032A0350E56EAF
:10233000800EE56E020EE56E400EE56E9DEC1CF023
:10234000040EE1260201A251800F7D0F02E1330E3F
:10235000A15D09E3010EE56E160EE56ECEEC13F0FD
:10236000E652E65207D0E56A160EE56ECEEC13F0A3
:10237000E652E652E56A210EE56EFBEC1CF0E652F1
:10238000E652130EE56E08EC17F0E652010A1DE165
:10239000140EE56E08EC17F0006EE652005015E1E1
:1023A000010EE56E150EE56ECEEC13F0E652E65228
:1023B000010EE56E000EE56E270EE56E960EE56EDB
:1023C0009DEC1CF0040EE1262ED0130EE56E08ECF9
:1023D00017F0E652010A1BE1140EE56E08EC17F047
:1023E000E652010A14E1E56A150EE56ECEEC13F033
:1023F000E652E652010EE56E000EE56E270EE56E22
:10240000980EE56E9DEC1CF0040EE1260CD0010E3A
:10241000E56E000EE56E270EE56E9A0EE56E9DECFC
:102420001CF0040EE126E56A210EE56EFBEC1CF0C3
:10243000E652E652E4CF03F0E4CF00F012001201BE
:102440000002FF00FF08D804AAFE000101020303F6
:1024500009021200010104C0000904000000FFFF8E
:10246000FF0409022000010205C000090400000267
:10247000FFFFFF050705010240000007058202403B
:10248000000009022000010304C00009040000024A
:10249000FFFFFF060705010240000007058202401A
:1024A0000000502400622400822400000403090478
:1024B00026034A00650061006E002D00500069008F
:1024C000650072007200650020004D0041004E0062
:1024D00044004F004E002203500069006E00670068
:1024E000750069006E006F002000500072006F00E0
:1024F0006A006500630074000403310010034400A7
:1025000065006600610075006C0074000C034600F5
:102510006C006100730068001C03500069006E00CD
:102520006700750069006E006F0020006100700098
:1025300070006C00AC2400B02400D62400F8240005
:10254000FC24000C2500182500002E0000783C001B
:10255000783C00783C00783C00783C00783C00787F
:102560003C00783C00783C00783C00783C00783CAB
:1025700000783C00783C00783C002E00003A0000D7
:10258000420000783C00783C00783C00783C0078C1
:102590003C00783C00783C00783C00783C00783C7B
:1025A00000783C00783C00783C002E0000D43B00D2
:1025B0003E3C00783C00783C00783C00783C007859
:1025C0003C00783C00783C00783C00783C00783C4B
:1025D00000783C00783C00783C004A25004A250001
:1025E0007A2500AA2500320000783C00783C00786B
:1025F0003C00783C00783C00783C00783C00783C1B
:1026000000783C00783C00783C00783C00783C0046
:10261000783C00783C00320000783C0046000078AE
:102620003C00783C00783C00783C00783C00783CEA
:1026300000783C00783C00783C00783C00783C0016
:10264000783C00783C00320000783C00703800781C
:102650003C00783C00783C00783C00783C00783CBA
:1026600000783C00783C00783C00783C00783C00E6
:10267000783C00783C00E62500E62500162600465A
:1026800026002E0000783C00783C00783C00783C26
:1026900000783C00783C00783C00783C00783C00B6
:1026A000783C00783C00783C00783C00783C00782E
:1026B0003C002E00003E0000783C00783C00783C56
:1026C00000783C00783C00783C00783C00783C0086
:1026D000783C00783C00783C00783C00783C0078FE
:1026E0003C002E0000F83100783C00783C00783C3B
:1026F00000783C00783C00783C00783C00783C0056
:10270000783C00783C00783C00783C00783C0078CD
:102710003C00822600822600B22600E22600360017
:1027200000783C00783C00783C00783C00783C0025
:10273000783C00783C00783C00783C00783C00789D
:102740003C00783C00783C00783C00783C001E2738
:10275000001E27001E27001E27000102040810206B
:1027600040804080010204010204082001020401AB
:102770000204081020408010010101010101010143
:10278000020202020200000000000404040303032A
:10279000030303030300410042004500D9CFE5FFD6
:1027A000E1CFD9FF00C0E5FF01C0E5FF02C0E5FFB2
:1027B00003C0E5FF04C0E5FF020EDBCF00F0030E0F
:1027C000DBCF01F0780E0024026E036A270E03228D
:1027D000046A000E042202C0F6FF03C0F7FF04C023
:1027E000F8FF0900F5CF02F0050E025CD8B0F8D072
:1027F000FA6AFB6A0234FA36E834FA36FC0B0E0F3A
:10280000E56E280EFA22000EFB22E450F96E11EF5D
:1028100014F03EEF14F06BEF14F098EF14F0C5EFE6
:1028200014F0015015E05A0E0024026E036A270EC0
:102830000322046A000E042202C0F6FF03C0F7FF61
:1028400004C0F8FF0900F5CF02F002508912C8D089
:102850005A0E0024026E036A270E0322046A000E39
:10286000042202C0F6FF03C0F7FF04C0F8FF09000E
:10287000F5CF02F00250FF088916B2D0015015E0E2
:102880005A0E0024026E036A270E0322046A000E09
:10289000042202C0F6FF03C0F7FF04C0F8FF0900DE
:1028A000F5CF02F002508A129BD05A0E0024026E1D
:1028B000036A270E0322046A000E042202C0F6FFF8
:1028C00003C0F7FF04C0F8FF0900F5CF02F0025083
:1028D000FF088A1685D0015015E05A0E0024026EBA
:1028E000036A270E0322046A000E042202C0F6FFC8
:1028F00003C0F7FF04C0F8FF0900F5CF02F0025053
:102900008B126ED05A0E0024026E036A270E032229
:10291000046A000E042202C0F6FF03C0F7FF04C0E1
:10292000F8FF0900F5CF02F00250FF088B1658D0CF
:10293000015015E05A0E0024026E036A270E03228E
:10294000046A000E042202C0F6FF03C0F7FF04C0B1
:10295000F8FF0900F5CF02F002508C1241D05A0E58
:102960000024026E036A270E0322046A000E04226A
:1029700002C0F6FF03C0F7FF04C0F8FF0900F5CF5F
:1029800002F00250FF088C162BD0015015E05A0EB1
:102990000024016E026A270E0222036A000E03223F
:1029A00001C0F6FF02C0F7FF03C0F8FF0900F5CF32
:1029B00001F001508D1214D0016A026A5A0E0026ED
:1029C000270E0122000E022200C0F6FF01C0F7FF11
:1029D00002C0F8FF0900F5CF00F00050FF088D1687
:1029E000E4CF04F0E4CF03F0E4CF02F0E4CF01F051
:1029F000E4CF00F0E4CFD9FF1200D9CFE5FFE1CF5B
:102A0000D9FF00C0E5FF01C0E5FF02C0E5FF03C03C
:102A1000E5FF04C0E5FF020EDBCF00F0030EDBCFC5
:102A200001F0780E0024026E036A270E0322046A66
:102A3000000E042202C0F6FF03C0F7FF04C0F8FF37
:102A40000900F5CF02F0050E025CD8B0F8D0FA6AA2
:102A5000FB6A0234FA36E834FA36FC0B6C0FE56E8A
:102A60002A0EFA22000EFB22E450F96E40EF15F018
:102A70006DEF15F09AEF15F0C7EF15F0F4EF15F0C4
:102A8000015015E05A0E0024026E036A270E03223D
:102A9000046A000E042202C0F6FF03C0F7FF04C060
:102AA000F8FF0900F5CF02F002509212C8D05A0E7A
:102AB0000024026E036A270E0322046A000E042219
:102AC00002C0F6FF03C0F7FF04C0F8FF0900F5CF0E
:102AD00002F00250FF089216B2D0015015E05A0ED3
:102AE0000024026E036A270E0322046A000E0422E9
:102AF00002C0F6FF03C0F7FF04C0F8FF0900F5CFDE
:102B000002F0025093129BD05A0E0024026E036A08
:102B1000270E0322046A000E042202C0F6FF03C03F
:102B2000F7FF04C0F8FF0900F5CF02F00250FF08DC
:102B3000931685D0015015E05A0E0024026E036AE8
:102B4000270E0322046A000E042202C0F6FF03C00F
:102B5000F7FF04C0F8FF0900F5CF02F0025094120D
:102B60006ED05A0E0024026E036A270E0322046AF6
:102B7000000E042202C0F6FF03C0F7FF04C0F8FFF6
:102B80000900F5CF02F00250FF08941658D001500A
:102B900015E05A0E0024026E036A270E0322046A0F
:102BA000000E042202C0F6FF03C0F7FF04C0F8FFC6
:102BB0000900F5CF02F00250951241D05A0E0024C0
:102BC000026E036A270E0322046A000E042202C06A
:102BD000F6FF03C0F7FF04C0F8FF0900F5CF02F0CD
:102BE0000250FF0895162BD0015015E05A0E002414
:102BF000016E026A270E0222036A000E032201C040
:102C0000F6FF02C0F7FF03C0F8FF0900F5CF01F09F
:102C10000150961214D0016A026A5A0E0026270E3D
:102C20000122000E022200C0F6FF01C0F7FF02C021
:102C3000F8FF0900F5CF00F00050FF089616E4CF2A
:102C400004F0E4CF03F0E4CF02F0E4CF01F0E4CFEE
:102C500000F0E4CFD9FF1200D9CFE5FFE1CFD9FFD3
:102C600000C0E5FF01C0E5FF02C0E5FF03C0E5FFCE
:102C700004C0E5FF05C0E5FF06C0E5FF07C0E5FFAE
:102C800008C0E5FF09C0E5FF0AC0E5FF0BC0E5FF8E
:102C90000CC0E5FF0DC0E5FF0EC0E5FF0FC0E5FF6E
:102CA000020EDBCF00F0030EDBCF01F0040EDBCF12
:102CB00002F0050EDBCF03F0060EDBCF04F0070EAB
:102CC000DBCF05F0080EDBCF06F0200E076E086A9A
:102CD00006C009F00A6A0B6A0C6AE56AE56AE56AE9
:102CE0000950E56E0350E56E0250E56E0150E56E49
:102CF0000050E56ED3EC17F00D6E080EE126300E95
:102D00000D263A0E0D5C05E30D500E6E270E0E24B7
:102D10000D6EFF0E07260822800E07240E6E020E8F
:102D200008200F6E0EC0E9FF0FC0EAFF0DC0EFFFD5
:102D30000C50E56E0B50E56E0A50E56E0950E56EDD
:102D40000350E56E0250E56E0150E56E0050E56EF1
:102D500070EC18F0006EF3CF01F0F4CF02F0E9CF81
:102D600003F0080EE1260050011002100310D8A451
:102D7000AFD707C000F008C001F004C002F005C0E2
:102D800003F000C004F001C005F0004A012A800EE3
:102D90000426020E052204C0E9FF05C0EAFFEFCFBA
:102DA00004F002C0E9FF03C0EAFF04C0EFFF024ADB
:102DB000032A000E015C02E1200E005CE2E302C087
:102DC000E9FF03C0EAFF000EEF6AE4CF0FF0E4CFA3
:102DD0000EF0E4CF0DF0E4CF0CF0E4CF0BF0E4CF35
:102DE0000AF0E4CF09F0E4CF08F0E4CF07F0E4CF35
:102DF00006F0E4CF05F0E4CF04F0E4CF03F0E4CF35
:102E000002F0E4CF01F0E4CF00F0E4CFD9FF1200EC
:102E1000D9CFE5FFE1CFD9FF00C0E5FF01C0E5FF55
:102E200002C0E5FF03C0E5FF020EDBCF00F0780E25
:102E30000024016E026A270E0222036A000E03229A
:102E400001C0F6FF02C0F7FF03C0F8FF0900F5CF8D
:102E500001F0050E015CD8B09AD0FA6AFB6A013421
:102E6000FA36E834FA36FC0B780FE56E2E0EFA22AD
:102E7000000EFB22E450F96E46EF17F060EF17F0FA
:102E80007AEF17F094EF17F0AEEF17F05A0E002418
:102E9000016E026A270E0222036A000E032201C09D
:102EA000F6FF02C0F7FF03C0F8FF0900F5CF01F0FD
:102EB00080500116015002E0010E6AD0E86A68D025
:102EC0005A0E0024016E026A270E0222036A000EC7
:102ED000032201C0F6FF02C0F7FF03C0F8FF09009C
:102EE000F5CF01F081500116015002E0010E50D0E3
:102EF000E86A4ED05A0E0024016E026A270E0222A2
:102F0000036A000E032201C0F6FF02C0F7FF03C0F0
:102F1000F8FF0900F5CF01F082500116015002E0E0
:102F2000010E36D0E86A34D05A0E0024016E026ACF
:102F3000270E0222036A000E032201C0F6FF02C020
:102F4000F7FF03C0F8FF0900F5CF01F08350011629
:102F5000015002E0010E1CD0E86A1AD0016A026A30
:102F60005A0E0026270E0122000E022200C0F6FF94
:102F700001C0F7FF02C0F8FF0900F5CF00F0845050
:102F80000016005002E0010E03D0E86A01D0E86AA2
:102F9000E4CF03F0E4CF02F0E4CF01F0E4CF00F09F
:102FA000E4CFD9FF1200D9CFE5FFE1CFD9FF00C0B0
:102FB000E5FF01C0E5FF02C0E5FF03C0E5FF04C077
:102FC000E5FF05C0E5FF06C0E5FF07C0E5FF08C057
:102FD000E5FF09C0E5FF0AC0E5FF020EDBCF00F008
:102FE000030EDBCF01F0040EDBCF02F0050EDBCFCA
:102FF00003F0060EDBCF04F0070EDBCF05F0080E62
:10300000DBCF06F0090EDBCF07F0086A045005108D
:103010000610071005E1E968F468F368E86847D02E
:10302000096A0750800BE8440A6E0A501BE10450FD
:1030300004260536063607360750035C08E10650BD
:10304000025C05E10550015C02E10450005C06E20F
:10305000D890073206320532043204D0092A09C05A
:1030600008F0DFD70750035C08E10650025C05E179
:103070000550015C02E10450005C08E30450005E6E
:103080000550015A0650025A0750035AD890073289
:1030900006320532043208C009F008060950E2E1A0
:1030A00003C0E9FF02C0F4FF01C0F3FF0050E4CF0A
:1030B0000AF0E4CF09F0E4CF08F0E4CF07F0E4CF62
:1030C00006F0E4CF05F0E4CF04F0E4CF03F0E4CF62
:1030D00002F0E4CF01F0E4CF00F0E4CFD9FF12001A
:1030E000D9CFE5FFE1CFD9FF00C0E5FF01C0E5FF83
:1030F00002C0E5FF03C0E5FF04C0E5FF05C0E5FF32
:1031000006C0E5FF07C0E5FF08C0E5FF09C0E5FF11
:103110000AC0E5FF0BC0E5FF0CC0E5FF0DC0E5FFF1
:10312000020EDBCF00F0030EDBCF01F0040EDBCF8D
:1031300002F0050EDBCF03F0060EDBCF04F0070E26
:10314000DBCF05F0080EDBCF06F0090EDBCF07F072
:10315000086A096A0A6A0B6A200E0C6E0350800B1B
:10316000E8440D6E00500026013602360336085042
:10317000082609360A360B360D50D8A408800750A9
:103180000B5C08E106500A5C05E10550095C02E1B0
:103190000450085C09E30450085E0550095A0650C3
:1031A0000A5A07500B5A00800C2ED8D703C0E9FFEB
:1031B00002C0F4FF01C0F3FF0050E4CF0DF0E4CFF4
:1031C0000CF0E4CF0BF0E4CF0AF0E4CF09F0E4CF49
:1031D00008F0E4CF07F0E4CF06F0E4CF05F0E4CF49
:1031E00004F0E4CF03F0E4CF02F0E4CF01F0E4CF49
:1031F00000F0E4CFD9FF120000C0E5FF01C0E5FFF9
:1032000002C0E5FF03C0E5FF010E0401095DD8A07F
:1032100047D0400E095DD8B043D0006A040109517F
:10322000005C32E2400E0024016E026A060E0222A9
:1032300001C0E9FF02C0EAFFEFCF01F00201B35184
:103240003F0A04E00201B329026E02D0010E026EB1
:103250000201B45102180FE0B3C202F00201B32B15
:10326000036A000E0226020E032202C0E9FF03C019
:10327000EAFF01C0EFFF0201B351400A03E1010E72
:103280000201B36F002ACAD7400E0401096F08BDBE
:1032900003D0C80E086F0DD0880E0401086F09D046
:1032A000400E0401096F400E0A6F060E0B6F840E6C
:1032B000086FE4CF03F0E4CF02F0E4CF01F0E4CFF5
:1032C00000F01200D9CFE5FFE1CFD9FF00C0E5FF44
:1032D00001C0E5FF02C0E5FF03C0E5FF04C0E5FF54
:1032E00005C0E5FF06C0E5FF07C0E5FF08C0E5FF34
:1032F000020EDBCF00F0030EDBCF01F0040EDBCFBC
:1033000002F0036AD7EC1DF0046E04502BE003C0FA
:1033100004F0032A056A066A0050042601500522BB
:1033200002500622B4C207F00201B42B086A000E54
:103330000726020E082207C0E9FF08C0EAFFEFCF08
:1033400007F007C0E5FF04C0E9FF05C0F3FF065022
:1033500031EC00F00201B451400AD4E1010E020147
:10336000B46FD0D70350E4CF08F0E4CF07F0E4CF38
:1033700006F0E4CF05F0E4CF04F0E4CF03F0E4CFAF
:1033800002F0E4CF01F0E4CF00F0E4CFD9FF120067
:10339000D9CFE5FFE1CFD9FF00C0E5FF01C0E5FFD0
:1033A00002C0E5FF03C0E5FF04C0E5FF020EDBCF6E
:1033B00000F0030EDBCF01F0040EDBCF02F0005073
:1033C0000B0A20E000500C0A38E10C0EBD6ED890BC
:1033D0000230036E0130006ED8900332003200508C
:1033E000BE6E006A030E0214036EF00E0016003A61
:1033F000033A03140026BDCF04F00450001200501D
:10340000BD6E1BD00C0EBA6ED8900230036E013028
:10341000006ED890033200320050BB6E016A030E7A
:103420000216F00E0116013A023A02140126BACF32
:1034300000F0005001120150BA6E9E92E4CF04F0E9
:10344000E4CF03F0E4CF02F0E4CF01F0E4CF00F0EA
:10345000E4CFD9FF1200D9CFE5FFE1CFD9FF00C0FB
:10346000E5FF01C0E5FF02C0E5FF03C0E5FF04C0C2
:10347000E5FF05C0E5FF06C0E5FF020EDBCF00F06B
:10348000030EDBCF01F0040EDBCF02F0050EDBCF25
:1034900003F0060EDBCF04F0070EDBCF05F0080EBD
:1034A000DBCF06F0D88003AED89015E306500A0AA9
:1034B00012E104C0E9FF05C0EAFF2D0EEF6E044AD9
:1034C000052A031E021E011E006C05E1012A03E10C
:1034D000022AD8B4032A0650E56E0550E56E045062
:1034E000E56E0350E56E0250E56E0150E56E00504A
:1034F000E56E2CEC16F0070EE126E4CF06F0E4CFE3
:1035000005F0E4CF04F0E4CF03F0E4CF02F0E4CF21
:1035100001F0E4CF00F0E4CFD9FF1200010EE56E18
:103520000D0EE56EFDEC14F0E652E652010EE56E6E
:103530000E0EE56EFDEC14F0E652E652010EE56E5D
:103540000F0EE56EFDEC14F0E652E652010EE56E4C
:10355000100EE56EFDEC14F0E652E652010EE56E3B
:10356000110EE56EFDEC14F0E652E652010EE56E2A
:10357000120EE56EFDEC14F0E652E652010EE56E19
:10358000130EE56EFDEC14F0E652E652010EE56E08
:10359000140EE56EFDEC14F0E652E652E56A150EE7
:1035A000E56EFDEC14F0E652E652E56A160EE56EA5
:1035B000FDEC14F0E652E6521200D9CFE5FFE1CF60
:1035C000D9FF00C0E5FF01C0E5FF02C0E5FF03C071
:1035D000E5FF020EDBCF00F00D0E005C0BE3150ED5
:1035E000005C08E2F30E0024016E0144E844FC0B89
:1035F000C26E07D0060E005C04E20044E844FC0BF7
:10360000C26EC280090E006E016A0000FF0E002625
:10361000012200500110F9E1C282C2B2FED7C4CF2C
:1036200000F0016A0050036E026AC3CF00F0016A25
:103630000050022601500322C29003C0F3FF025043
:10364000E4CF03F0E4CF02F0E4CF01F0E4CF00F0E8
:10365000E4CFD9FF1200300EF66E3C0EF76E000E6E
:10366000F86E0900F550056E0900F550066E05501C
:1036700002E106503BE00900F550006E0900F550EC
:10368000016E0900F550026E09000900F550E96E5F
:103690000900F550EA6E090009000900F550036EB3
:1036A0000900F550046E09000900F6CF07F0F7CFC6
:1036B00008F0F8CF09F000C0F6FF01C0F7FF02C024
:1036C000F8FF035002E1045007E00900F550EE6EE8
:1036D0000306F8E20406F9D707C0F6FF08C0F7FFB3
:1036E00009C0F8FF0506C4E20606C5D71200D9CF07
:1036F000E5FFE1CFD9FF00C0E5FF01C0E5FF02C053
:10370000E5FF03C0E5FF04C0E5FF05C0E5FF06C017
:10371000E5FF020EDBCF00F0030EDBCF01F0040E5D
:10372000DBCF02F0050EDBCF03F0060EDBCF04F09B
:10373000E86A01BEFF0E056E066E0450E56E03508A
:10374000E56E0250E56E0650E56E0550E56E0150DF
:10375000E56E0050E56E2BEC1AF0070EE126E4CF83
:1037600006F0E4CF05F0E4CF04F0E4CF03F0E4CFBB
:1037700002F0E4CF01F0E4CF00F0E4CFD9FF120073
:10378000D9CFE5FFE1CFD9FF00C0E5FF01C0E5FFDC
:1037900002C0E5FF03C0E5FF04C0E5FF05C0E5FF8B
:1037A000020EDBCF00F0030EDBCF01F0040EDBCF07
:1037B00002F0036A046A00C0E9FF01C0F3FF02508F
:1037C00029EC00F0056E002A02E3014A022A0550A6
:1037D00003E0034A042AEFD704C0F3FF0350E4CF09
:1037E00005F0E4CF04F0E4CF03F0E4CF02F0E4CF3F
:1037F00001F0E4CF00F0E4CFD9FF1200D9CFE5FF0C
:10380000E1CFD9FF00C0E5FF01C0E5FF02C0E5FF41
:1038100003C0E5FF04C0E5FF020EDBCF00F0030E9E
:10382000DBCF01F0040EDBCF02F0050EDBCF03F09F
:10383000060EDBCF04F00450E56E0350E56E025037
:10384000E56EE56AE56A0150E56E0050E56E2CEC28
:1038500016F0070EE126E4CF04F0E4CF03F0E4CF46
:1038600002F0E4CF01F0E4CF00F0E4CFD9FF120082
:103870000201AE51AF1103E10201B2512CE1000E81
:103880000201AF5D02E1400EAE5DD8700201B26B85
:10389000B2370201AE510401156F800EE56E020EC3
:1038A000E56EAE0EE56EE56A400EE56E800EE56EE5
:1038B000020EE56EA50EE56E020EE56E15EC00F04B
:1038C000090EE126040114BD03D0C80E146F03D005
:1038D000880E0401146F1200000E0201AF5D02E1B8
:1038E000400EAE5DD8700201B26BB2370201AE512C
:1038F0000401156F000E166F060E176F800EE56E31
:10390000020EE56EAE0EE56EE56A400EE56E800EC7
:10391000E56E020EE56EA50EE56E020EE56E15EC87
:1039200000F0090EE126040114BD03D0C80E146F87
:1039300003D0880E0401146F1200D9CFE5FFE1CF48
:10394000D9FF00C0E5FF01C0E5FF02C0E5FF03C0ED
:10395000E5FF020EDBCF00F0030EDBCF01F0040E1B
:10396000DBCF02F0050EDBCF03F00350E56E025013
:10397000E56E0150E56E0050E56E76EC1DF0040E2C
:10398000E126E4CF03F0E4CF02F0E4CF01F0E4CF8E
:1039900000F0E4CFD9FF1200D9CFE5FFE1CFD9FF86
:1039A00000C0E5FF01C0E5FF02C0E5FF03C0E5FF81
:1039B000020EDBCF00F0030EDBCF01F0040EDBCFF5
:1039C00002F0050EDBCF03F00350E56E0250E56E0A
:1039D0000150E56E0050E56E76EC1DF0040EE12618
:1039E000E4CF03F0E4CF02F0E4CF01F0E4CF00F045
:1039F000E4CFD9FF1200D9CFE5FFE1CFD9FF00C056
:103A0000E5FF01C0E5FF02C0E5FF03C0E5FF020ED0
:103A1000DBCF00F0030EDBCF01F0026A036A015036
:103A2000035C02E10050025C06E20C0E39EC00F08F
:103A3000024A032AF4D7E4CF03F0E4CF02F0E4CF44
:103A400001F0E4CF00F0E4CFD9FF1200D9CFE5FFB9
:103A5000E1CFD9FF00C0E5FF01C0E5FF02C0E5FFEF
:103A6000020EDBCF00F0030EDBCF01F0040EDBCF44
:103A700002F00250E56E0150E56E0050E56E62EC1A
:103A800019F0006E030EE1260050E4CF02F0E4CFFF
:103A900001F0E4CF00F0E4CFD9FF120000C0E5FF51
:103AA00001C0E5FF02C0E5FF006AAE503B10001008
:103AB00015E0B4C201F00201B42B026A000E012627
:103AC000020E022201C0E9FF02C0EAFFEFCF00F0C0
:103AD000B451400A03E1010E0201B46F0050E4CF7B
:103AE00002F0E4CF01F0E4CF00F01200D9CFE5FFFF
:103AF000E1CFD9FF00C0E5FF020EDBCFA5F2030E38
:103B0000DBCFA6F2040EDBCFA7F2050EDBCF00F071
:103B100000C0AEF20201AF6B6CEC1CF0E4CF00F021
:103B2000E4CFD9FF1200D0B202D0930ED012D350FE
:103B3000030B800F7D0F02E3D3A4FED7F29EF29C0D
:103B4000AEEC1DF02BEC1EF025EC1EF010EC1EF080
:103B50008EEC1AF04BEC10F0FDD71200896A8A6ADD
:103B6000400E8B6E8C6A8D6A926A936A94909492DE
:103B70009494949C949E956A966A806A816A826AFB
:103B8000836A846A1200D9CFE5FFE1CFD9FF00C074
:103B9000E5FF020EDBCF00F0005004E00050010A08
:103BA00001E1C188E4CF00F0E4CFD9FF120000C0EA
:103BB000E5FF006A0201B3510201B41901E1002AD4
:103BC0000050D880E866D890006A00360050E4CFF4
:103BD00000F01200400E0401096F400E0A6F060E3D
:103BE0000B6F880E086F1C0E716E010E0201B36F11
:103BF0000201B46F120011EEFFF021EEFFF0F86A3F
:103C0000A68EA69C2BEC1BF093EC1DF0FFD7A1AA6F
:103C100006D00FEC00F0689C6890A19A6A6A1200C6
:103C20002F0E9212070E9612C16EBD0EC06E1200BC
:103C300001001A200000A002000005000000480E4C
:103C40000401146F1A0E726E1200A19AA08AA28A41
:103C5000F28EF28C12000F0EC16E070EB46E1200BF
:103C6000CB68040ECA6E1200D7EC1DF012004EECA9
:0A3C70001DF01200FBEF1DF0120022
:10400000D8CFE5FFE0CFE5FFE56EF3CFE5FFF4CFD6
:10401000E5FFE9CFE5FFEACFE5FFFACFE5FFFBCF0C
:10402000E5FFD9CFE5FFE1CFD9FFF6CFE5FFF7CF29
:10403000E5FFF8CFE5FFF5CFE5FFE4CFF5FFE4CFEF
:10404000F8FFE4CFF7FFE4CFF6FFE4CFD9FFE4CFEA
:10405000FBFFE4CFFAFFE4CFEAFFE4CFE9FFE4CFD0
:10406000F4FFE4CFF3FFE450E4CFE0FFE4CFD8FF68
:0240700010003E
:00000001FF
